{
  "_format": "hh-sol-artifact-1",
  "contractName": "TenderManagement",
  "sourceName": "contracts/TenderManagement.sol",
  "abi": [
    {
      "inputs": [],
      "stateMutability": "nonpayable",
      "type": "constructor"
    },
    {
      "anonymous": false,
      "inputs": [
        {
          "indexed": true,
          "internalType": "uint256",
          "name": "bidId",
          "type": "uint256"
        },
        {
          "indexed": true,
          "internalType": "uint256",
          "name": "tenderId",
          "type": "uint256"
        },
        {
          "indexed": true,
          "internalType": "address",
          "name": "contractor",
          "type": "address"
        }
      ],
      "name": "BidAccepted",
      "type": "event"
    },
    {
      "anonymous": false,
      "inputs": [
        {
          "indexed": true,
          "internalType": "uint256",
          "name": "bidId",
          "type": "uint256"
        },
        {
          "indexed": true,
          "internalType": "uint256",
          "name": "tenderId",
          "type": "uint256"
        },
        {
          "indexed": true,
          "internalType": "address",
          "name": "contractor",
          "type": "address"
        },
        {
          "indexed": false,
          "internalType": "uint256",
          "name": "bidAmount",
          "type": "uint256"
        }
      ],
      "name": "BidSubmitted",
      "type": "event"
    },
    {
      "anonymous": false,
      "inputs": [
        {
          "indexed": true,
          "internalType": "uint256",
          "name": "contractId",
          "type": "uint256"
        },
        {
          "indexed": true,
          "internalType": "uint256",
          "name": "tenderId",
          "type": "uint256"
        }
      ],
      "name": "ContractCompleted",
      "type": "event"
    },
    {
      "anonymous": false,
      "inputs": [
        {
          "indexed": true,
          "internalType": "uint256",
          "name": "tenderId",
          "type": "uint256"
        },
        {
          "indexed": true,
          "internalType": "uint256",
          "name": "contractId",
          "type": "uint256"
        },
        {
          "indexed": true,
          "internalType": "address",
          "name": "contractor",
          "type": "address"
        },
        {
          "indexed": false,
          "internalType": "uint256",
          "name": "contractValue",
          "type": "uint256"
        }
      ],
      "name": "TenderAwarded",
      "type": "event"
    },
    {
      "anonymous": false,
      "inputs": [
        {
          "indexed": true,
          "internalType": "uint256",
          "name": "tenderId",
          "type": "uint256"
        },
        {
          "indexed": true,
          "internalType": "address",
          "name": "createdBy",
          "type": "address"
        },
        {
          "indexed": false,
          "internalType": "string",
          "name": "title",
          "type": "string"
        },
        {
          "indexed": false,
          "internalType": "uint256",
          "name": "estimatedBudget",
          "type": "uint256"
        },
        {
          "indexed": false,
          "internalType": "uint256",
          "name": "bidStartTime",
          "type": "uint256"
        },
        {
          "indexed": false,
          "internalType": "uint256",
          "name": "bidEndTime",
          "type": "uint256"
        }
      ],
      "name": "TenderCreated",
      "type": "event"
    },
    {
      "inputs": [
        {
          "internalType": "uint256",
          "name": "_bidId",
          "type": "uint256"
        },
        {
          "internalType": "uint256",
          "name": "_contractValue",
          "type": "uint256"
        },
        {
          "internalType": "uint256",
          "name": "_startDate",
          "type": "uint256"
        },
        {
          "internalType": "uint256",
          "name": "_endDate",
          "type": "uint256"
        }
      ],
      "name": "acceptBidAndAwardTender",
      "outputs": [],
      "stateMutability": "nonpayable",
      "type": "function"
    },
    {
      "inputs": [
        {
          "internalType": "address",
          "name": "",
          "type": "address"
        }
      ],
      "name": "admins",
      "outputs": [
        {
          "internalType": "bool",
          "name": "",
          "type": "bool"
        }
      ],
      "stateMutability": "view",
      "type": "function"
    },
    {
      "inputs": [],
      "name": "bidCount",
      "outputs": [
        {
          "internalType": "uint256",
          "name": "",
          "type": "uint256"
        }
      ],
      "stateMutability": "view",
      "type": "function"
    },
    {
      "inputs": [
        {
          "internalType": "uint256",
          "name": "",
          "type": "uint256"
        }
      ],
      "name": "bids",
      "outputs": [
        {
          "internalType": "uint256",
          "name": "id",
          "type": "uint256"
        },
        {
          "internalType": "uint256",
          "name": "tenderId",
          "type": "uint256"
        },
        {
          "internalType": "address",
          "name": "contractor",
          "type": "address"
        },
        {
          "internalType": "uint256",
          "name": "bidAmount",
          "type": "uint256"
        },
        {
          "internalType": "string",
          "name": "proposal",
          "type": "string"
        },
        {
          "internalType": "uint256",
          "name": "createdAt",
          "type": "uint256"
        },
        {
          "internalType": "enum TenderManagement.BidStatus",
          "name": "status",
          "type": "uint8"
        }
      ],
      "stateMutability": "view",
      "type": "function"
    },
    {
      "inputs": [
        {
          "internalType": "uint256",
          "name": "_tenderId",
          "type": "uint256"
        }
      ],
      "name": "closeTenderBidding",
      "outputs": [],
      "stateMutability": "nonpayable",
      "type": "function"
    },
    {
      "inputs": [
        {
          "internalType": "uint256",
          "name": "_contractId",
          "type": "uint256"
        }
      ],
      "name": "completeContract",
      "outputs": [],
      "stateMutability": "nonpayable",
      "type": "function"
    },
    {
      "inputs": [],
      "name": "contractCount",
      "outputs": [
        {
          "internalType": "uint256",
          "name": "",
          "type": "uint256"
        }
      ],
      "stateMutability": "view",
      "type": "function"
    },
    {
      "inputs": [
        {
          "internalType": "uint256",
          "name": "",
          "type": "uint256"
        }
      ],
      "name": "contracts",
      "outputs": [
        {
          "internalType": "uint256",
          "name": "id",
          "type": "uint256"
        },
        {
          "internalType": "uint256",
          "name": "bidId",
          "type": "uint256"
        },
        {
          "internalType": "uint256",
          "name": "tenderId",
          "type": "uint256"
        },
        {
          "internalType": "address",
          "name": "contractor",
          "type": "address"
        },
        {
          "internalType": "address",
          "name": "awardedBy",
          "type": "address"
        },
        {
          "internalType": "uint256",
          "name": "contractValue",
          "type": "uint256"
        },
        {
          "internalType": "uint256",
          "name": "startDate",
          "type": "uint256"
        },
        {
          "internalType": "uint256",
          "name": "endDate",
          "type": "uint256"
        },
        {
          "internalType": "enum TenderManagement.ContractStatus",
          "name": "status",
          "type": "uint8"
        }
      ],
      "stateMutability": "view",
      "type": "function"
    },
    {
      "inputs": [
        {
          "internalType": "string",
          "name": "_title",
          "type": "string"
        },
        {
          "internalType": "string",
          "name": "_description",
          "type": "string"
        },
        {
          "internalType": "uint256",
          "name": "_category",
          "type": "uint256"
        },
        {
          "internalType": "uint256",
          "name": "_estimatedBudget",
          "type": "uint256"
        },
        {
          "internalType": "uint256",
          "name": "_bidStartTime",
          "type": "uint256"
        },
        {
          "internalType": "uint256",
          "name": "_bidEndTime",
          "type": "uint256"
        }
      ],
      "name": "createTender",
      "outputs": [],
      "stateMutability": "nonpayable",
      "type": "function"
    },
    {
      "inputs": [
        {
          "internalType": "uint256",
          "name": "_bidId",
          "type": "uint256"
        }
      ],
      "name": "getBid",
      "outputs": [
        {
          "components": [
            {
              "internalType": "uint256",
              "name": "id",
              "type": "uint256"
            },
            {
              "internalType": "uint256",
              "name": "tenderId",
              "type": "uint256"
            },
            {
              "internalType": "address",
              "name": "contractor",
              "type": "address"
            },
            {
              "internalType": "uint256",
              "name": "bidAmount",
              "type": "uint256"
            },
            {
              "internalType": "string",
              "name": "proposal",
              "type": "string"
            },
            {
              "internalType": "uint256",
              "name": "createdAt",
              "type": "uint256"
            },
            {
              "internalType": "enum TenderManagement.BidStatus",
              "name": "status",
              "type": "uint8"
            }
          ],
          "internalType": "struct TenderManagement.Bid",
          "name": "",
          "type": "tuple"
        }
      ],
      "stateMutability": "view",
      "type": "function"
    },
    {
      "inputs": [
        {
          "internalType": "uint256",
          "name": "_contractId",
          "type": "uint256"
        }
      ],
      "name": "getContract",
      "outputs": [
        {
          "components": [
            {
              "internalType": "uint256",
              "name": "id",
              "type": "uint256"
            },
            {
              "internalType": "uint256",
              "name": "bidId",
              "type": "uint256"
            },
            {
              "internalType": "uint256",
              "name": "tenderId",
              "type": "uint256"
            },
            {
              "internalType": "address",
              "name": "contractor",
              "type": "address"
            },
            {
              "internalType": "address",
              "name": "awardedBy",
              "type": "address"
            },
            {
              "internalType": "uint256",
              "name": "contractValue",
              "type": "uint256"
            },
            {
              "internalType": "uint256",
              "name": "startDate",
              "type": "uint256"
            },
            {
              "internalType": "uint256",
              "name": "endDate",
              "type": "uint256"
            },
            {
              "internalType": "enum TenderManagement.ContractStatus",
              "name": "status",
              "type": "uint8"
            }
          ],
          "internalType": "struct TenderManagement.Contract",
          "name": "",
          "type": "tuple"
        }
      ],
      "stateMutability": "view",
      "type": "function"
    },
    {
      "inputs": [
        {
          "internalType": "uint256",
          "name": "_tenderId",
          "type": "uint256"
        }
      ],
      "name": "getTender",
      "outputs": [
        {
          "components": [
            {
              "internalType": "uint256",
              "name": "id",
              "type": "uint256"
            },
            {
              "internalType": "address",
              "name": "createdBy",
              "type": "address"
            },
            {
              "internalType": "string",
              "name": "title",
              "type": "string"
            },
            {
              "internalType": "string",
              "name": "description",
              "type": "string"
            },
            {
              "internalType": "uint256",
              "name": "category",
              "type": "uint256"
            },
            {
              "internalType": "uint256",
              "name": "estimatedBudget",
              "type": "uint256"
            },
            {
              "internalType": "uint256",
              "name": "bidStartTime",
              "type": "uint256"
            },
            {
              "internalType": "uint256",
              "name": "bidEndTime",
              "type": "uint256"
            },
            {
              "internalType": "uint256",
              "name": "createdAt",
              "type": "uint256"
            },
            {
              "internalType": "enum TenderManagement.TenderStatus",
              "name": "status",
              "type": "uint8"
            },
            {
              "internalType": "bool",
              "name": "isAllotted",
              "type": "bool"
            }
          ],
          "internalType": "struct TenderManagement.Tender",
          "name": "",
          "type": "tuple"
        }
      ],
      "stateMutability": "view",
      "type": "function"
    },
    {
      "inputs": [
        {
          "internalType": "uint256",
          "name": "_tenderId",
          "type": "uint256"
        }
      ],
      "name": "getTenderBids",
      "outputs": [
        {
          "internalType": "uint256[]",
          "name": "",
          "type": "uint256[]"
        }
      ],
      "stateMutability": "view",
      "type": "function"
    },
    {
      "inputs": [
        {
          "internalType": "uint256",
          "name": "_tenderId",
          "type": "uint256"
        }
      ],
      "name": "getTenderContracts",
      "outputs": [
        {
          "internalType": "uint256[]",
          "name": "",
          "type": "uint256[]"
        }
      ],
      "stateMutability": "view",
      "type": "function"
    },
    {
      "inputs": [],
      "name": "getTotalBids",
      "outputs": [
        {
          "internalType": "uint256",
          "name": "",
          "type": "uint256"
        }
      ],
      "stateMutability": "view",
      "type": "function"
    },
    {
      "inputs": [],
      "name": "getTotalContracts",
      "outputs": [
        {
          "internalType": "uint256",
          "name": "",
          "type": "uint256"
        }
      ],
      "stateMutability": "view",
      "type": "function"
    },
    {
      "inputs": [],
      "name": "getTotalTenders",
      "outputs": [
        {
          "internalType": "uint256",
          "name": "",
          "type": "uint256"
        }
      ],
      "stateMutability": "view",
      "type": "function"
    },
    {
      "inputs": [
        {
          "internalType": "uint256",
          "name": "_tenderId",
          "type": "uint256"
        }
      ],
      "name": "openTenderForBidding",
      "outputs": [],
      "stateMutability": "nonpayable",
      "type": "function"
    },
    {
      "inputs": [
        {
          "internalType": "uint256",
          "name": "_bidId",
          "type": "uint256"
        }
      ],
      "name": "rejectBid",
      "outputs": [],
      "stateMutability": "nonpayable",
      "type": "function"
    },
    {
      "inputs": [
        {
          "internalType": "address",
          "name": "_admin",
          "type": "address"
        },
        {
          "internalType": "bool",
          "name": "_isAdmin",
          "type": "bool"
        }
      ],
      "name": "setAdmin",
      "outputs": [],
      "stateMutability": "nonpayable",
      "type": "function"
    },
    {
      "inputs": [
        {
          "internalType": "uint256",
          "name": "_tenderId",
          "type": "uint256"
        },
        {
          "internalType": "uint256",
          "name": "_bidAmount",
          "type": "uint256"
        },
        {
          "internalType": "string",
          "name": "_proposal",
          "type": "string"
        }
      ],
      "name": "submitBid",
      "outputs": [],
      "stateMutability": "nonpayable",
      "type": "function"
    },
    {
      "inputs": [
        {
          "internalType": "uint256",
          "name": "",
          "type": "uint256"
        },
        {
          "internalType": "uint256",
          "name": "",
          "type": "uint256"
        }
      ],
      "name": "tenderBids",
      "outputs": [
        {
          "internalType": "uint256",
          "name": "",
          "type": "uint256"
        }
      ],
      "stateMutability": "view",
      "type": "function"
    },
    {
      "inputs": [
        {
          "internalType": "uint256",
          "name": "",
          "type": "uint256"
        },
        {
          "internalType": "uint256",
          "name": "",
          "type": "uint256"
        }
      ],
      "name": "tenderContracts",
      "outputs": [
        {
          "internalType": "uint256",
          "name": "",
          "type": "uint256"
        }
      ],
      "stateMutability": "view",
      "type": "function"
    },
    {
      "inputs": [],
      "name": "tenderCount",
      "outputs": [
        {
          "internalType": "uint256",
          "name": "",
          "type": "uint256"
        }
      ],
      "stateMutability": "view",
      "type": "function"
    },
    {
      "inputs": [
        {
          "internalType": "uint256",
          "name": "",
          "type": "uint256"
        }
      ],
      "name": "tenders",
      "outputs": [
        {
          "internalType": "uint256",
          "name": "id",
          "type": "uint256"
        },
        {
          "internalType": "address",
          "name": "createdBy",
          "type": "address"
        },
        {
          "internalType": "string",
          "name": "title",
          "type": "string"
        },
        {
          "internalType": "string",
          "name": "description",
          "type": "string"
        },
        {
          "internalType": "uint256",
          "name": "category",
          "type": "uint256"
        },
        {
          "internalType": "uint256",
          "name": "estimatedBudget",
          "type": "uint256"
        },
        {
          "internalType": "uint256",
          "name": "bidStartTime",
          "type": "uint256"
        },
        {
          "internalType": "uint256",
          "name": "bidEndTime",
          "type": "uint256"
        },
        {
          "internalType": "uint256",
          "name": "createdAt",
          "type": "uint256"
        },
        {
          "internalType": "enum TenderManagement.TenderStatus",
          "name": "status",
          "type": "uint8"
        },
        {
          "internalType": "bool",
          "name": "isAllotted",
          "type": "bool"
        }
      ],
      "stateMutability": "view",
      "type": "function"
    },
    {
      "inputs": [
        {
          "internalType": "uint256",
          "name": "_bidId",
          "type": "uint256"
        }
      ],
      "name": "withdrawBid",
      "outputs": [],
      "stateMutability": "nonpayable",
      "type": "function"
    }
  ],
  "bytecode": "0x6080604052348015600f57600080fd5b5060016000803373ffffffffffffffffffffffffffffffffffffffff1673ffffffffffffffffffffffffffffffffffffffff16815260200190815260200160002060006101000a81548160ff0219169083151502179055506000600681905550600060078190555060006008819055506146ef8061008e6000396000f3fe608060405234801561001057600080fd5b506004361061018e5760003560e01c806358ee94cd116100de578063aba394de11610097578063c4d76a9d11610071578063c4d76a9d146104e3578063dcc70b9a146104ff578063eb5b70471461051d578063f76562871461053b5761018e565b8063aba394de14610479578063b40a562714610495578063c23c252a146104b35761018e565b806358ee94cd146103935780636e3341b3146103af5780636ebc8c86146103cb5780638736381a146103fb5780638d8009f114610419578063a704d03f146104495761018e565b8063429b62e51161014b578063474da79a11610125578063474da79a146103055780634b0bddd21461033d578063525b9d4f14610359578063534860cc146103755761018e565b8063429b62e5146102655780634423c5f114610295578063465e1def146102cb5761018e565b80630585c25e146101935780630eaaf4c8146101c357806314c60bdd146101df5780631f058776146101fb578063328a4514146102195780633c889e6f14610235575b600080fd5b6101ad60048036038101906101a89190612ca9565b61056b565b6040516101ba9190612f3e565b60405180910390f35b6101dd60048036038101906101d89190612ca9565b6107f8565b005b6101f960048036038101906101f49190613095565b610ab9565b005b610203610fa0565b6040516102109190613113565b60405180910390f35b610233600480360381019061022e9190612ca9565b610fa6565b005b61024f600480360381019061024a9190612ca9565b61124c565b60405161025c9190613212565b60405180910390f35b61027f600480360381019061027a9190613260565b611417565b60405161028c919061329c565b60405180910390f35b6102af60048036038101906102aa9190612ca9565b611437565b6040516102c2979695949392919061331f565b60405180910390f35b6102e560048036038101906102e09190612ca9565b61152e565b6040516102fc9b9a999897969594939291906133a4565b60405180910390f35b61031f600480360381019061031a9190612ca9565b6116d2565b604051610334999897969594939291906134a5565b60405180910390f35b6103576004803603810190610352919061355e565b61176d565b005b610373600480360381019061036e919061359e565b611852565b005b61037d611bb0565b60405161038a9190613113565b60405180910390f35b6103ad60048036038101906103a89190612ca9565b611bba565b005b6103c960048036038101906103c49190612ca9565b611da6565b005b6103e560048036038101906103e09190612ca9565b611f4f565b6040516103f29190613729565b60405180910390f35b6104036120f1565b6040516104109190613113565b60405180910390f35b610433600480360381019061042e9190613745565b6120f7565b6040516104409190613113565b60405180910390f35b610463600480360381019061045e9190612ca9565b612128565b6040516104709190613834565b60405180910390f35b610493600480360381019061048e9190612ca9565b6121e6565b005b61049d612434565b6040516104aa9190613113565b60405180910390f35b6104cd60048036038101906104c89190613745565b61243a565b6040516104da9190613113565b60405180910390f35b6104fd60048036038101906104f89190613856565b61246b565b005b610507612a1a565b6040516105149190613113565b60405180910390f35b610525612a24565b6040516105329190613113565b60405180910390f35b61055560048036038101906105509190612ca9565b612a2e565b6040516105629190613834565b60405180910390f35b610573612aec565b8160008111801561058657506006548111155b6105c5576040517f08c379a00000000000000000000000000000000000000000000000000000000081526004016105bc90613909565b60405180910390fd5b6001600084815260200190815260200160002060405180610160016040529081600082015481526020016001820160009054906101000a900473ffffffffffffffffffffffffffffffffffffffff1673ffffffffffffffffffffffffffffffffffffffff1673ffffffffffffffffffffffffffffffffffffffff16815260200160028201805461065490613958565b80601f016020809104026020016040519081016040528092919081815260200182805461068090613958565b80156106cd5780601f106106a2576101008083540402835291602001916106cd565b820191906000526020600020905b8154815290600101906020018083116106b057829003601f168201915b505050505081526020016003820180546106e690613958565b80601f016020809104026020016040519081016040528092919081815260200182805461071290613958565b801561075f5780601f106107345761010080835404028352916020019161075f565b820191906000526020600020905b81548152906001019060200180831161074257829003601f168201915b5050505050815260200160048201548152602001600582015481526020016006820154815260200160078201548152602001600882015481526020016009820160009054906101000a900460ff1660048111156107bf576107be612db6565b5b60048111156107d1576107d0612db6565b5b81526020016009820160019054906101000a900460ff161515151581525050915050919050565b8060008111801561080b57506007548111155b61084a576040517f08c379a0000000000000000000000000000000000000000000000000000000008152600401610841906139d5565b60405180910390fd5b3373ffffffffffffffffffffffffffffffffffffffff166002600084815260200190815260200160002060020160009054906101000a900473ffffffffffffffffffffffffffffffffffffffff1673ffffffffffffffffffffffffffffffffffffffff16146108ee576040517f08c379a00000000000000000000000000000000000000000000000000000000081526004016108e590613a41565b60405180910390fd5b6000600381111561090257610901612db6565b5b6002600084815260200190815260200160002060060160009054906101000a900460ff16600381111561093857610937612db6565b5b14610978576040517f08c379a000000000000000000000000000000000000000000000000000000000815260040161096f90613aad565b60405180910390fd5b600060026000848152602001908152602001600020600101549050600160048111156109a7576109a6612db6565b5b6001600083815260200190815260200160002060090160009054906101000a900460ff1660048111156109dd576109dc612db6565b5b14610a1d576040517f08c379a0000000000000000000000000000000000000000000000000000000008152600401610a1490613b3f565b60405180910390fd5b60016000828152602001908152602001600020600701544210610a75576040517f08c379a0000000000000000000000000000000000000000000000000000000008152600401610a6c90613bab565b60405180910390fd5b60036002600085815260200190815260200160002060060160006101000a81548160ff02191690836003811115610aaf57610aae612db6565b5b0217905550505050565b82600081118015610acc57506006548111155b610b0b576040517f08c379a0000000000000000000000000000000000000000000000000000000008152600401610b0290613909565b60405180910390fd5b60016004811115610b1f57610b1e612db6565b5b6001600086815260200190815260200160002060090160009054906101000a900460ff166004811115610b5557610b54612db6565b5b14610b95576040517f08c379a0000000000000000000000000000000000000000000000000000000008152600401610b8c90613c17565b60405180910390fd5b6001600085815260200190815260200160002060060154421015610bee576040517f08c379a0000000000000000000000000000000000000000000000000000000008152600401610be590613c83565b60405180910390fd5b6001600085815260200190815260200160002060070154421115610c47576040517f08c379a0000000000000000000000000000000000000000000000000000000008152600401610c3e90613bab565b60405180910390fd5b60008311610c8a576040517f08c379a0000000000000000000000000000000000000000000000000000000008152600401610c8190613d15565b60405180910390fd5b600060046000868152602001908152602001600020805480602002602001604051908101604052809291908181526020018280548015610ce957602002820191906000526020600020905b815481526020019060010190808311610cd5575b5050505050905060005b8151811015610dc7573373ffffffffffffffffffffffffffffffffffffffff1660026000848481518110610d2a57610d29613d35565b5b6020026020010151815260200190815260200160002060020160009054906101000a900473ffffffffffffffffffffffffffffffffffffffff1673ffffffffffffffffffffffffffffffffffffffff1603610dba576040517f08c379a0000000000000000000000000000000000000000000000000000000008152600401610db190613dd6565b60405180910390fd5b8080600101915050610cf3565b5060076000815480929190610ddb90613e25565b91905055506040518060e0016040528060075481526020018681526020013373ffffffffffffffffffffffffffffffffffffffff16815260200185815260200184815260200142815260200160006003811115610e3b57610e3a612db6565b5b815250600260006007548152602001908152602001600020600082015181600001556020820151816001015560408201518160020160006101000a81548173ffffffffffffffffffffffffffffffffffffffff021916908373ffffffffffffffffffffffffffffffffffffffff160217905550606082015181600301556080820151816004019081610ecd9190614019565b5060a0820151816005015560c08201518160060160006101000a81548160ff02191690836003811115610f0357610f02612db6565b5b02179055509050506004600086815260200190815260200160002060075490806001815401808255809150506001900390600052602060002001600090919091909150553373ffffffffffffffffffffffffffffffffffffffff16856007547fb5cc2e6a75ba593196ae1600d90399014d2790179ceae0b5d9a2303144028bad87604051610f919190613113565b60405180910390a45050505050565b60065481565b6000803373ffffffffffffffffffffffffffffffffffffffff1673ffffffffffffffffffffffffffffffffffffffff16815260200190815260200160002060009054906101000a900460ff16611031576040517f08c379a00000000000000000000000000000000000000000000000000000000081526004016110289061415d565b60405180910390fd5b8060008111801561104457506006548111155b611083576040517f08c379a000000000000000000000000000000000000000000000000000000000815260040161107a90613909565b60405180910390fd5b3373ffffffffffffffffffffffffffffffffffffffff166001600084815260200190815260200160002060010160009054906101000a900473ffffffffffffffffffffffffffffffffffffffff1673ffffffffffffffffffffffffffffffffffffffff1614611127576040517f08c379a000000000000000000000000000000000000000000000000000000000815260040161111e906141c9565b60405180910390fd5b6000600481111561113b5761113a612db6565b5b6001600084815260200190815260200160002060090160009054906101000a900460ff16600481111561117157611170612db6565b5b146111b1576040517f08c379a00000000000000000000000000000000000000000000000000000000081526004016111a890614235565b60405180910390fd5b426001600084815260200190815260200160002060060154111561120a576040517f08c379a0000000000000000000000000000000000000000000000000000000008152600401611201906142a1565b60405180910390fd5b600180600084815260200190815260200160002060090160006101000a81548160ff0219169083600481111561124357611242612db6565b5b02179055505050565b611254612b70565b8160008111801561126757506007548111155b6112a6576040517f08c379a000000000000000000000000000000000000000000000000000000000815260040161129d906139d5565b60405180910390fd5b600260008481526020019081526020016000206040518060e001604052908160008201548152602001600182015481526020016002820160009054906101000a900473ffffffffffffffffffffffffffffffffffffffff1673ffffffffffffffffffffffffffffffffffffffff1673ffffffffffffffffffffffffffffffffffffffff1681526020016003820154815260200160048201805461134890613958565b80601f016020809104026020016040519081016040528092919081815260200182805461137490613958565b80156113c15780601f10611396576101008083540402835291602001916113c1565b820191906000526020600020905b8154815290600101906020018083116113a457829003601f168201915b50505050508152602001600582015481526020016006820160009054906101000a900460ff1660038111156113f9576113f8612db6565b5b600381111561140b5761140a612db6565b5b81525050915050919050565b60006020528060005260406000206000915054906101000a900460ff1681565b60026020528060005260406000206000915090508060000154908060010154908060020160009054906101000a900473ffffffffffffffffffffffffffffffffffffffff169080600301549080600401805461149290613958565b80601f01602080910402602001604051908101604052809291908181526020018280546114be90613958565b801561150b5780601f106114e05761010080835404028352916020019161150b565b820191906000526020600020905b8154815290600101906020018083116114ee57829003601f168201915b5050505050908060050154908060060160009054906101000a900460ff16905087565b60016020528060005260406000206000915090508060000154908060010160009054906101000a900473ffffffffffffffffffffffffffffffffffffffff169080600201805461157d90613958565b80601f01602080910402602001604051908101604052809291908181526020018280546115a990613958565b80156115f65780601f106115cb576101008083540402835291602001916115f6565b820191906000526020600020905b8154815290600101906020018083116115d957829003601f168201915b50505050509080600301805461160b90613958565b80601f016020809104026020016040519081016040528092919081815260200182805461163790613958565b80156116845780601f1061165957610100808354040283529160200191611684565b820191906000526020600020905b81548152906001019060200180831161166757829003601f168201915b5050505050908060040154908060050154908060060154908060070154908060080154908060090160009054906101000a900460ff16908060090160019054906101000a900460ff1690508b565b60036020528060005260406000206000915090508060000154908060010154908060020154908060030160009054906101000a900473ffffffffffffffffffffffffffffffffffffffff16908060040160009054906101000a900473ffffffffffffffffffffffffffffffffffffffff16908060050154908060060154908060070154908060080160009054906101000a900460ff16905089565b6000803373ffffffffffffffffffffffffffffffffffffffff1673ffffffffffffffffffffffffffffffffffffffff16815260200190815260200160002060009054906101000a900460ff166117f8576040517f08c379a00000000000000000000000000000000000000000000000000000000081526004016117ef9061415d565b60405180910390fd5b806000808473ffffffffffffffffffffffffffffffffffffffff1673ffffffffffffffffffffffffffffffffffffffff16815260200190815260200160002060006101000a81548160ff0219169083151502179055505050565b6000803373ffffffffffffffffffffffffffffffffffffffff1673ffffffffffffffffffffffffffffffffffffffff16815260200190815260200160002060009054906101000a900460ff166118dd576040517f08c379a00000000000000000000000000000000000000000000000000000000081526004016118d49061415d565b60405180910390fd5b42821015611920576040517f08c379a00000000000000000000000000000000000000000000000000000000081526004016119179061430d565b60405180910390fd5b818111611962576040517f08c379a00000000000000000000000000000000000000000000000000000000081526004016119599061439f565b60405180910390fd5b600083116119a5576040517f08c379a000000000000000000000000000000000000000000000000000000000815260040161199c9061440b565b60405180910390fd5b600660008154809291906119b890613e25565b919050555060405180610160016040528060065481526020013373ffffffffffffffffffffffffffffffffffffffff16815260200187815260200186815260200185815260200184815260200183815260200182815260200142815260200160006004811115611a2b57611a2a612db6565b5b8152602001600015158152506001600060065481526020019081526020016000206000820151816000015560208201518160010160006101000a81548173ffffffffffffffffffffffffffffffffffffffff021916908373ffffffffffffffffffffffffffffffffffffffff1602179055506040820151816002019081611ab29190614019565b506060820151816003019081611ac89190614019565b506080820151816004015560a0820151816005015560c0820151816006015560e0820151816007015561010082015181600801556101208201518160090160006101000a81548160ff02191690836004811115611b2857611b27612db6565b5b02179055506101408201518160090160016101000a81548160ff0219169083151502179055509050503373ffffffffffffffffffffffffffffffffffffffff166006547fa955087729421a54ea8b6321e9ca25c4b6ea9f94020f9bbc63e8dbc606d740d788868686604051611ba0949392919061442b565b60405180910390a3505050505050565b6000600854905090565b6000803373ffffffffffffffffffffffffffffffffffffffff1673ffffffffffffffffffffffffffffffffffffffff16815260200190815260200160002060009054906101000a900460ff16611c45576040517f08c379a0000000000000000000000000000000000000000000000000000000008152600401611c3c9061415d565b60405180910390fd5b600081118015611c5757506008548111155b611c96576040517f08c379a0000000000000000000000000000000000000000000000000000000008152600401611c8d906144c3565b60405180910390fd5b60006002811115611caa57611ca9612db6565b5b6003600083815260200190815260200160002060080160009054906101000a900460ff166002811115611ce057611cdf612db6565b5b14611d20576040517f08c379a0000000000000000000000000000000000000000000000000000000008152600401611d179061452f565b60405180910390fd5b60016003600083815260200190815260200160002060080160006101000a81548160ff02191690836002811115611d5a57611d59612db6565b5b02179055506003600082815260200190815260200160002060020154817fc359db1b32c1f03560a66f10a6185a42781504569a42647678b18d92bdc4ca2e60405160405180910390a350565b6000803373ffffffffffffffffffffffffffffffffffffffff1673ffffffffffffffffffffffffffffffffffffffff16815260200190815260200160002060009054906101000a900460ff16611e31576040517f08c379a0000000000000000000000000000000000000000000000000000000008152600401611e289061415d565b60405180910390fd5b80600081118015611e4457506007548111155b611e83576040517f08c379a0000000000000000000000000000000000000000000000000000000008152600401611e7a906139d5565b60405180910390fd5b60006003811115611e9757611e96612db6565b5b6002600084815260200190815260200160002060060160009054906101000a900460ff166003811115611ecd57611ecc612db6565b5b14611f0d576040517f08c379a0000000000000000000000000000000000000000000000000000000008152600401611f0490613aad565b60405180910390fd5b600280600084815260200190815260200160002060060160006101000a81548160ff02191690836003811115611f4657611f45612db6565b5b02179055505050565b611f57612bd5565b600082118015611f6957506008548211155b611fa8576040517f08c379a0000000000000000000000000000000000000000000000000000000008152600401611f9f906144c3565b60405180910390fd5b60036000838152602001908152602001600020604051806101200160405290816000820154815260200160018201548152602001600282015481526020016003820160009054906101000a900473ffffffffffffffffffffffffffffffffffffffff1673ffffffffffffffffffffffffffffffffffffffff1673ffffffffffffffffffffffffffffffffffffffff1681526020016004820160009054906101000a900473ffffffffffffffffffffffffffffffffffffffff1673ffffffffffffffffffffffffffffffffffffffff1673ffffffffffffffffffffffffffffffffffffffff1681526020016005820154815260200160068201548152602001600782015481526020016008820160009054906101000a900460ff1660028111156120d4576120d3612db6565b5b60028111156120e6576120e5612db6565b5b815250509050919050565b60085481565b6005602052816000526040600020818154811061211357600080fd5b90600052602060002001600091509150505481565b60608160008111801561213d57506006548111155b61217c576040517f08c379a000000000000000000000000000000000000000000000000000000000815260040161217390613909565b60405180910390fd5b600560008481526020019081526020016000208054806020026020016040519081016040528092919081815260200182805480156121d957602002820191906000526020600020905b8154815260200190600101908083116121c5575b5050505050915050919050565b6000803373ffffffffffffffffffffffffffffffffffffffff1673ffffffffffffffffffffffffffffffffffffffff16815260200190815260200160002060009054906101000a900460ff16612271576040517f08c379a00000000000000000000000000000000000000000000000000000000081526004016122689061415d565b60405180910390fd5b8060008111801561228457506006548111155b6122c3576040517f08c379a00000000000000000000000000000000000000000000000000000000081526004016122ba90613909565b60405180910390fd5b3373ffffffffffffffffffffffffffffffffffffffff166001600084815260200190815260200160002060010160009054906101000a900473ffffffffffffffffffffffffffffffffffffffff1673ffffffffffffffffffffffffffffffffffffffff1614612367576040517f08c379a000000000000000000000000000000000000000000000000000000000815260040161235e9061459b565b60405180910390fd5b6001600481111561237b5761237a612db6565b5b6001600084815260200190815260200160002060090160009054906101000a900460ff1660048111156123b1576123b0612db6565b5b146123f1576040517f08c379a00000000000000000000000000000000000000000000000000000000081526004016123e890613c17565b60405180910390fd5b60026001600084815260200190815260200160002060090160006101000a81548160ff0219169083600481111561242b5761242a612db6565b5b02179055505050565b60075481565b6004602052816000526040600020818154811061245657600080fd5b90600052602060002001600091509150505481565b6000803373ffffffffffffffffffffffffffffffffffffffff1673ffffffffffffffffffffffffffffffffffffffff16815260200190815260200160002060009054906101000a900460ff166124f6576040517f08c379a00000000000000000000000000000000000000000000000000000000081526004016124ed9061415d565b60405180910390fd5b8360008111801561250957506007548111155b612548576040517f08c379a000000000000000000000000000000000000000000000000000000000815260040161253f906139d5565b60405180910390fd5b60006002600087815260200190815260200160002090506000600381111561257357612572612db6565b5b8160060160009054906101000a900460ff16600381111561259757612596612db6565b5b146125d7576040517f08c379a00000000000000000000000000000000000000000000000000000000081526004016125ce90613aad565b60405180910390fd5b838311612619576040517f08c379a00000000000000000000000000000000000000000000000000000000081526004016126109061462d565b60405180910390fd5b600081600101549050600015156001600083815260200190815260200160002060090160019054906101000a900460ff1615151461268c576040517f08c379a000000000000000000000000000000000000000000000000000000000815260040161268390614699565b60405180910390fd5b60018260060160006101000a81548160ff021916908360038111156126b4576126b3612db6565b5b0217905550600860008154809291906126cc90613e25565b919050555060405180610120016040528060085481526020018881526020018281526020018360020160009054906101000a900473ffffffffffffffffffffffffffffffffffffffff1673ffffffffffffffffffffffffffffffffffffffff1681526020013373ffffffffffffffffffffffffffffffffffffffff1681526020018781526020018681526020018581526020016000600281111561277357612772612db6565b5b81525060036000600854815260200190815260200160002060008201518160000155602082015181600101556040820151816002015560608201518160030160006101000a81548173ffffffffffffffffffffffffffffffffffffffff021916908373ffffffffffffffffffffffffffffffffffffffff16021790555060808201518160040160006101000a81548173ffffffffffffffffffffffffffffffffffffffff021916908373ffffffffffffffffffffffffffffffffffffffff16021790555060a0820151816005015560c0820151816006015560e082015181600701556101008201518160080160006101000a81548160ff0219169083600281111561288157612880612db6565b5b0217905550905050600180600083815260200190815260200160002060090160016101000a81548160ff02191690831515021790555060036001600083815260200190815260200160002060090160006101000a81548160ff021916908360048111156128f1576128f0612db6565b5b02179055506005600082815260200190815260200160002060085490806001815401808255809150506001900390600052602060002001600090919091909150558160020160009054906101000a900473ffffffffffffffffffffffffffffffffffffffff1673ffffffffffffffffffffffffffffffffffffffff1681887fd04f845137f741f1b1fcb8758a097aa384274dde474ea57dc4b71e88f8625cf360405160405180910390a48160020160009054906101000a900473ffffffffffffffffffffffffffffffffffffffff1673ffffffffffffffffffffffffffffffffffffffff16600854827f93593448a3323c34fc8a76300cd6e85da9fa8ec97650116c6b1c1e80ba49bf8389604051612a099190613113565b60405180910390a450505050505050565b6000600754905090565b6000600654905090565b606081600081118015612a4357506006548111155b612a82576040517f08c379a0000000000000000000000000000000000000000000000000000000008152600401612a7990613909565b60405180910390fd5b60046000848152602001908152602001600020805480602002602001604051908101604052809291908181526020018280548015612adf57602002820191906000526020600020905b815481526020019060010190808311612acb575b5050505050915050919050565b60405180610160016040528060008152602001600073ffffffffffffffffffffffffffffffffffffffff1681526020016060815260200160608152602001600081526020016000815260200160008152602001600081526020016000815260200160006004811115612b6157612b60612db6565b5b81526020016000151581525090565b6040518060e001604052806000815260200160008152602001600073ffffffffffffffffffffffffffffffffffffffff16815260200160008152602001606081526020016000815260200160006003811115612bcf57612bce612db6565b5b81525090565b604051806101200160405280600081526020016000815260200160008152602001600073ffffffffffffffffffffffffffffffffffffffff168152602001600073ffffffffffffffffffffffffffffffffffffffff16815260200160008152602001600081526020016000815260200160006002811115612c5957612c58612db6565b5b81525090565b6000604051905090565b600080fd5b600080fd5b6000819050919050565b612c8681612c73565b8114612c9157600080fd5b50565b600081359050612ca381612c7d565b92915050565b600060208284031215612cbf57612cbe612c69565b5b6000612ccd84828501612c94565b91505092915050565b612cdf81612c73565b82525050565b600073ffffffffffffffffffffffffffffffffffffffff82169050919050565b6000612d1082612ce5565b9050919050565b612d2081612d05565b82525050565b600081519050919050565b600082825260208201905092915050565b60005b83811015612d60578082015181840152602081019050612d45565b60008484015250505050565b6000601f19601f8301169050919050565b6000612d8882612d26565b612d928185612d31565b9350612da2818560208601612d42565b612dab81612d6c565b840191505092915050565b7f4e487b7100000000000000000000000000000000000000000000000000000000600052602160045260246000fd5b60058110612df657612df5612db6565b5b50565b6000819050612e0782612de5565b919050565b6000612e1782612df9565b9050919050565b612e2781612e0c565b82525050565b60008115159050919050565b612e4281612e2d565b82525050565b600061016083016000830151612e616000860182612cd6565b506020830151612e746020860182612d17565b5060408301518482036040860152612e8c8282612d7d565b91505060608301518482036060860152612ea68282612d7d565b9150506080830151612ebb6080860182612cd6565b5060a0830151612ece60a0860182612cd6565b5060c0830151612ee160c0860182612cd6565b5060e0830151612ef460e0860182612cd6565b50610100830151612f09610100860182612cd6565b50610120830151612f1e610120860182612e1e565b50610140830151612f33610140860182612e39565b508091505092915050565b60006020820190508181036000830152612f588184612e48565b905092915050565b600080fd5b600080fd5b7f4e487b7100000000000000000000000000000000000000000000000000000000600052604160045260246000fd5b612fa282612d6c565b810181811067ffffffffffffffff82111715612fc157612fc0612f6a565b5b80604052505050565b6000612fd4612c5f565b9050612fe08282612f99565b919050565b600067ffffffffffffffff82111561300057612fff612f6a565b5b61300982612d6c565b9050602081019050919050565b82818337600083830152505050565b600061303861303384612fe5565b612fca565b90508281526020810184848401111561305457613053612f65565b5b61305f848285613016565b509392505050565b600082601f83011261307c5761307b612f60565b5b813561308c848260208601613025565b91505092915050565b6000806000606084860312156130ae576130ad612c69565b5b60006130bc86828701612c94565b93505060206130cd86828701612c94565b925050604084013567ffffffffffffffff8111156130ee576130ed612c6e565b5b6130fa86828701613067565b9150509250925092565b61310d81612c73565b82525050565b60006020820190506131286000830184613104565b92915050565b6004811061313f5761313e612db6565b5b50565b60008190506131508261312e565b919050565b600061316082613142565b9050919050565b61317081613155565b82525050565b600060e08301600083015161318e6000860182612cd6565b5060208301516131a16020860182612cd6565b5060408301516131b46040860182612d17565b5060608301516131c76060860182612cd6565b50608083015184820360808601526131df8282612d7d565b91505060a08301516131f460a0860182612cd6565b5060c083015161320760c0860182613167565b508091505092915050565b6000602082019050818103600083015261322c8184613176565b905092915050565b61323d81612d05565b811461324857600080fd5b50565b60008135905061325a81613234565b92915050565b60006020828403121561327657613275612c69565b5b60006132848482850161324b565b91505092915050565b61329681612e2d565b82525050565b60006020820190506132b1600083018461328d565b92915050565b6132c081612d05565b82525050565b600082825260208201905092915050565b60006132e282612d26565b6132ec81856132c6565b93506132fc818560208601612d42565b61330581612d6c565b840191505092915050565b61331981613155565b82525050565b600060e082019050613334600083018a613104565b6133416020830189613104565b61334e60408301886132b7565b61335b6060830187613104565b818103608083015261336d81866132d7565b905061337c60a0830185613104565b61338960c0830184613310565b98975050505050505050565b61339e81612e0c565b82525050565b6000610160820190506133ba600083018e613104565b6133c7602083018d6132b7565b81810360408301526133d9818c6132d7565b905081810360608301526133ed818b6132d7565b90506133fc608083018a613104565b61340960a0830189613104565b61341660c0830188613104565b61342360e0830187613104565b613431610100830186613104565b61343f610120830185613395565b61344d61014083018461328d565b9c9b505050505050505050505050565b6003811061346e5761346d612db6565b5b50565b600081905061347f8261345d565b919050565b600061348f82613471565b9050919050565b61349f81613484565b82525050565b6000610120820190506134bb600083018c613104565b6134c8602083018b613104565b6134d5604083018a613104565b6134e260608301896132b7565b6134ef60808301886132b7565b6134fc60a0830187613104565b61350960c0830186613104565b61351660e0830185613104565b613524610100830184613496565b9a9950505050505050505050565b61353b81612e2d565b811461354657600080fd5b50565b60008135905061355881613532565b92915050565b6000806040838503121561357557613574612c69565b5b60006135838582860161324b565b925050602061359485828601613549565b9150509250929050565b60008060008060008060c087890312156135bb576135ba612c69565b5b600087013567ffffffffffffffff8111156135d9576135d8612c6e565b5b6135e589828a01613067565b965050602087013567ffffffffffffffff81111561360657613605612c6e565b5b61361289828a01613067565b955050604061362389828a01612c94565b945050606061363489828a01612c94565b935050608061364589828a01612c94565b92505060a061365689828a01612c94565b9150509295509295509295565b61366c81613484565b82525050565b610120820160008201516136896000850182612cd6565b50602082015161369c6020850182612cd6565b5060408201516136af6040850182612cd6565b5060608201516136c26060850182612d17565b5060808201516136d56080850182612d17565b5060a08201516136e860a0850182612cd6565b5060c08201516136fb60c0850182612cd6565b5060e082015161370e60e0850182612cd6565b50610100820151613723610100850182613663565b50505050565b60006101208201905061373f6000830184613672565b92915050565b6000806040838503121561375c5761375b612c69565b5b600061376a85828601612c94565b925050602061377b85828601612c94565b9150509250929050565b600081519050919050565b600082825260208201905092915050565b6000819050602082019050919050565b60006137bd8383612cd6565b60208301905092915050565b6000602082019050919050565b60006137e182613785565b6137eb8185613790565b93506137f6836137a1565b8060005b8381101561382757815161380e88826137b1565b9750613819836137c9565b9250506001810190506137fa565b5085935050505092915050565b6000602082019050818103600083015261384e81846137d6565b905092915050565b600080600080608085870312156138705761386f612c69565b5b600061387e87828801612c94565b945050602061388f87828801612c94565b93505060406138a087828801612c94565b92505060606138b187828801612c94565b91505092959194509250565b7f54656e64657220646f6573206e6f742065786973740000000000000000000000600082015250565b60006138f36015836132c6565b91506138fe826138bd565b602082019050919050565b60006020820190508181036000830152613922816138e6565b9050919050565b7f4e487b7100000000000000000000000000000000000000000000000000000000600052602260045260246000fd5b6000600282049050600182168061397057607f821691505b60208210810361398357613982613929565b5b50919050565b7f42696420646f6573206e6f742065786973740000000000000000000000000000600082015250565b60006139bf6012836132c6565b91506139ca82613989565b602082019050919050565b600060208201905081810360008301526139ee816139b2565b9050919050565b7f4f6e6c7920626964206f776e65722063616e2077697468647261770000000000600082015250565b6000613a2b601b836132c6565b9150613a36826139f5565b602082019050919050565b60006020820190508181036000830152613a5a81613a1e565b9050919050565b7f426964206d757374206265207375626d69747465640000000000000000000000600082015250565b6000613a976015836132c6565b9150613aa282613a61565b602082019050919050565b60006020820190508181036000830152613ac681613a8a565b9050919050565b7f43616e206f6e6c792077697468647261772066726f6d206f70656e2074656e6460008201527f6572730000000000000000000000000000000000000000000000000000000000602082015250565b6000613b296023836132c6565b9150613b3482613acd565b604082019050919050565b60006020820190508181036000830152613b5881613b1c565b9050919050565b7f42696464696e672068617320656e646564000000000000000000000000000000600082015250565b6000613b956011836132c6565b9150613ba082613b5f565b602082019050919050565b60006020820190508181036000830152613bc481613b88565b9050919050565b7f54656e646572206d757374206265204f70656e00000000000000000000000000600082015250565b6000613c016013836132c6565b9150613c0c82613bcb565b602082019050919050565b60006020820190508181036000830152613c3081613bf4565b9050919050565b7f42696464696e67206e6f74207374617274656420796574000000000000000000600082015250565b6000613c6d6017836132c6565b9150613c7882613c37565b602082019050919050565b60006020820190508181036000830152613c9c81613c60565b9050919050565b7f42696420616d6f756e74206d7573742062652067726561746572207468616e2060008201527f3000000000000000000000000000000000000000000000000000000000000000602082015250565b6000613cff6021836132c6565b9150613d0a82613ca3565b604082019050919050565b60006020820190508181036000830152613d2e81613cf2565b9050919050565b7f4e487b7100000000000000000000000000000000000000000000000000000000600052603260045260246000fd5b7f436f6e74726163746f7220616c7265616479207375626d69747465642061206260008201527f6964000000000000000000000000000000000000000000000000000000000000602082015250565b6000613dc06022836132c6565b9150613dcb82613d64565b604082019050919050565b60006020820190508181036000830152613def81613db3565b9050919050565b7f4e487b7100000000000000000000000000000000000000000000000000000000600052601160045260246000fd5b6000613e3082612c73565b91507fffffffffffffffffffffffffffffffffffffffffffffffffffffffffffffffff8203613e6257613e61613df6565b5b600182019050919050565b60008190508160005260206000209050919050565b60006020601f8301049050919050565b600082821b905092915050565b600060088302613ecf7fffffffffffffffffffffffffffffffffffffffffffffffffffffffffffffffff82613e92565b613ed98683613e92565b95508019841693508086168417925050509392505050565b6000819050919050565b6000613f16613f11613f0c84612c73565b613ef1565b612c73565b9050919050565b6000819050919050565b613f3083613efb565b613f44613f3c82613f1d565b848454613e9f565b825550505050565b600090565b613f59613f4c565b613f64818484613f27565b505050565b5b81811015613f8857613f7d600082613f51565b600181019050613f6a565b5050565b601f821115613fcd57613f9e81613e6d565b613fa784613e82565b81016020851015613fb6578190505b613fca613fc285613e82565b830182613f69565b50505b505050565b600082821c905092915050565b6000613ff060001984600802613fd2565b1980831691505092915050565b60006140098383613fdf565b9150826002028217905092915050565b61402282612d26565b67ffffffffffffffff81111561403b5761403a612f6a565b5b6140458254613958565b614050828285613f8c565b600060209050601f8311600181146140835760008415614071578287015190505b61407b8582613ffd565b8655506140e3565b601f19841661409186613e6d565b60005b828110156140b957848901518255600182019150602085019450602081019050614094565b868310156140d657848901516140d2601f891682613fdf565b8355505b6001600288020188555050505b505050505050565b7f4f6e6c792061646d696e2063616e20706572666f726d2074686973206163746960008201527f6f6e000000000000000000000000000000000000000000000000000000000000602082015250565b60006141476022836132c6565b9150614152826140eb565b604082019050919050565b600060208201905081810360008301526141768161413a565b9050919050565b7f4f6e6c792063726561746f722063616e206f70656e2074656e64657200000000600082015250565b60006141b3601c836132c6565b91506141be8261417d565b602082019050919050565b600060208201905081810360008301526141e2816141a6565b9050919050565b7f54656e646572206d75737420626520696e204472616674207374617475730000600082015250565b600061421f601e836132c6565b915061422a826141e9565b602082019050919050565b6000602082019050818103600083015261424e81614212565b9050919050565b7f4269642073746172742074696d65206e6f742072656163686564000000000000600082015250565b600061428b601a836132c6565b915061429682614255565b602082019050919050565b600060208201905081810360008301526142ba8161427e565b9050919050565b7f4269642073746172742074696d65206d75737420626520696e20667574757265600082015250565b60006142f76020836132c6565b9150614302826142c1565b602082019050919050565b60006020820190508181036000830152614326816142ea565b9050919050565b7f42696420656e642074696d65206d75737420626520616674657220737461727460008201527f2074696d65000000000000000000000000000000000000000000000000000000602082015250565b60006143896025836132c6565b91506143948261432d565b604082019050919050565b600060208201905081810360008301526143b88161437c565b9050919050565b7f427564676574206d7573742062652067726561746572207468616e2030000000600082015250565b60006143f5601d836132c6565b9150614400826143bf565b602082019050919050565b60006020820190508181036000830152614424816143e8565b9050919050565b6000608082019050818103600083015261444581876132d7565b90506144546020830186613104565b6144616040830185613104565b61446e6060830184613104565b95945050505050565b7f436f6e747261637420646f6573206e6f74206578697374000000000000000000600082015250565b60006144ad6017836132c6565b91506144b882614477565b602082019050919050565b600060208201905081810360008301526144dc816144a0565b9050919050565b7f436f6e7472616374206d75737420626520616374697665000000000000000000600082015250565b60006145196017836132c6565b9150614524826144e3565b602082019050919050565b600060208201905081810360008301526145488161450c565b9050919050565b7f4f6e6c792063726561746f722063616e20636c6f73652074656e646572000000600082015250565b6000614585601d836132c6565b91506145908261454f565b602082019050919050565b600060208201905081810360008301526145b481614578565b9050919050565b7f456e642064617465206d7573742062652061667465722073746172742064617460008201527f6500000000000000000000000000000000000000000000000000000000000000602082015250565b60006146176021836132c6565b9150614622826145bb565b604082019050919050565b600060208201905081810360008301526146468161460a565b9050919050565b7f54656e64657220616c726561647920616c6c6f74746564000000000000000000600082015250565b60006146836017836132c6565b915061468e8261464d565b602082019050919050565b600060208201905081810360008301526146b281614676565b905091905056fea2646970667358221220793b6ca87f3d79fee54f2e9865c1ff29940874b604c16214623c986aa2f6a0fa64736f6c634300081c0033",
  "linkReferences": {},
  "deployedLinkReferences": {}
}